{
  "_format": "hh-sol-artifact-1",
  "contractName": "Marketplace",
  "sourceName": "src/backend/contracts/Marketplace.sol",
  "abi": [
    {
      "inputs": [
        {
          "internalType": "uint256",
          "name": "_feePercent",
          "type": "uint256"
        }
      ],
      "stateMutability": "nonpayable",
      "type": "constructor"
    },
    {
      "anonymous": false,
      "inputs": [
        {
          "indexed": false,
          "internalType": "uint256",
          "name": "itemId",
          "type": "uint256"
        },
        {
          "indexed": true,
          "internalType": "address",
          "name": "nft",
          "type": "address"
        },
        {
          "indexed": false,
          "internalType": "uint256",
          "name": "tokenId",
          "type": "uint256"
        },
        {
          "indexed": false,
          "internalType": "uint256",
          "name": "price",
          "type": "uint256"
        },
        {
          "indexed": true,
          "internalType": "address",
          "name": "seller",
          "type": "address"
        }
      ],
      "name": "Offered",
      "type": "event"
    },
    {
      "inputs": [],
      "name": "feeAccount",
      "outputs": [
        {
          "internalType": "address payable",
          "name": "",
          "type": "address"
        }
      ],
      "stateMutability": "view",
      "type": "function"
    },
    {
      "inputs": [],
      "name": "feePercent",
      "outputs": [
        {
          "internalType": "uint256",
          "name": "",
          "type": "uint256"
        }
      ],
      "stateMutability": "view",
      "type": "function"
    },
    {
      "inputs": [],
      "name": "itemCount",
      "outputs": [
        {
          "internalType": "uint256",
          "name": "",
          "type": "uint256"
        }
      ],
      "stateMutability": "view",
      "type": "function"
    },
    {
      "inputs": [
        {
          "internalType": "uint256",
          "name": "",
          "type": "uint256"
        }
      ],
      "name": "items",
      "outputs": [
        {
          "internalType": "uint256",
          "name": "itemId",
          "type": "uint256"
        },
        {
          "internalType": "contract IERC721",
          "name": "nft",
          "type": "address"
        },
        {
          "internalType": "uint256",
          "name": "tokenId",
          "type": "uint256"
        },
        {
          "internalType": "uint256",
          "name": "price",
          "type": "uint256"
        },
        {
          "internalType": "address payable",
          "name": "seller",
          "type": "address"
        },
        {
          "internalType": "bool",
          "name": "sold",
          "type": "bool"
        }
      ],
      "stateMutability": "view",
      "type": "function"
    },
    {
      "inputs": [
        {
          "internalType": "contract IERC721",
          "name": "_nft",
          "type": "address"
        },
        {
          "internalType": "uint256",
          "name": "_tokenId",
          "type": "uint256"
        },
        {
          "internalType": "uint256",
          "name": "_price",
          "type": "uint256"
        }
      ],
      "name": "makeItem",
      "outputs": [],
      "stateMutability": "nonpayable",
      "type": "function"
    }
  ],
  "bytecode": "0x60c060405234801561001057600080fd5b506040516109fd3803806109fd83398181016040528101906100329190610094565b60016000819055503373ffffffffffffffffffffffffffffffffffffffff1660808173ffffffffffffffffffffffffffffffffffffffff1660601b815250508060a08181525050506100de565b60008151905061008e816100c7565b92915050565b6000602082840312156100a657600080fd5b60006100b48482850161007f565b91505092915050565b6000819050919050565b6100d0816100bd565b81146100db57600080fd5b50565b60805160601c60a0516108f761010660003960006101330152600061010901526108f76000f3fe608060405234801561001057600080fd5b50600436106100575760003560e01c806365e17c9d1461005c5780636bfb0d011461007a5780637fd6f15c14610098578063bfb231d2146100b6578063fa00afc7146100eb575b600080fd5b610064610107565b60405161007191906105e3565b60405180910390f35b61008261012b565b60405161008f9190610675565b60405180910390f35b6100a0610131565b6040516100ad9190610675565b60405180910390f35b6100d060048036038101906100cb9190610529565b610155565b6040516100e296959493929190610690565b60405180910390f35b610105600480360381019061010091906104da565b6101de565b005b7f000000000000000000000000000000000000000000000000000000000000000081565b60015481565b7f000000000000000000000000000000000000000000000000000000000000000081565b60026020528060005260406000206000915090508060000154908060010160009054906101000a900473ffffffffffffffffffffffffffffffffffffffff16908060020154908060030154908060040160009054906101000a900473ffffffffffffffffffffffffffffffffffffffff16908060040160149054906101000a900460ff16905086565b60026000541415610224576040517f08c379a000000000000000000000000000000000000000000000000000000000815260040161021b90610635565b60405180910390fd5b60026000819055506000811161026f576040517f08c379a000000000000000000000000000000000000000000000000000000000815260040161026690610655565b60405180910390fd5b60016000815480929190610282906107c9565b91905055508273ffffffffffffffffffffffffffffffffffffffff166323b872dd3330856040518463ffffffff1660e01b81526004016102c4939291906105fe565b600060405180830381600087803b1580156102de57600080fd5b505af11580156102f2573d6000803e3d6000fd5b505050506040518060c0016040528060015481526020018473ffffffffffffffffffffffffffffffffffffffff1681526020018381526020018281526020013373ffffffffffffffffffffffffffffffffffffffff168152602001600015158152506002600060015481526020019081526020016000206000820151816000015560208201518160010160006101000a81548173ffffffffffffffffffffffffffffffffffffffff021916908373ffffffffffffffffffffffffffffffffffffffff160217905550604082015181600201556060820151816003015560808201518160040160006101000a81548173ffffffffffffffffffffffffffffffffffffffff021916908373ffffffffffffffffffffffffffffffffffffffff16021790555060a08201518160040160146101000a81548160ff0219169083151502179055509050503373ffffffffffffffffffffffffffffffffffffffff168373ffffffffffffffffffffffffffffffffffffffff167f655a0cf9c8db81512be9a76dc1c5ae5380b8816ce6ad659cd61b715e2999d59a600154858560405161049b939291906106f1565b60405180910390a36001600081905550505050565b6000813590506104bf81610893565b92915050565b6000813590506104d4816108aa565b92915050565b6000806000606084860312156104ef57600080fd5b60006104fd868287016104b0565b935050602061050e868287016104c5565b925050604061051f868287016104c5565b9150509250925092565b60006020828403121561053b57600080fd5b6000610549848285016104c5565b91505092915050565b61055b8161074b565b82525050565b61056a81610739565b82525050565b6105798161075d565b82525050565b610588816107a5565b82525050565b600061059b601f83610728565b91506105a682610841565b602082019050919050565b60006105be601f83610728565b91506105c98261086a565b602082019050919050565b6105dd8161079b565b82525050565b60006020820190506105f86000830184610552565b92915050565b60006060820190506106136000830186610561565b6106206020830185610561565b61062d60408301846105d4565b949350505050565b6000602082019050818103600083015261064e8161058e565b9050919050565b6000602082019050818103600083015261066e816105b1565b9050919050565b600060208201905061068a60008301846105d4565b92915050565b600060c0820190506106a560008301896105d4565b6106b2602083018861057f565b6106bf60408301876105d4565b6106cc60608301866105d4565b6106d96080830185610552565b6106e660a0830184610570565b979650505050505050565b600060608201905061070660008301866105d4565b61071360208301856105d4565b61072060408301846105d4565b949350505050565b600082825260208201905092915050565b60006107448261077b565b9050919050565b60006107568261077b565b9050919050565b60008115159050919050565b600061077482610739565b9050919050565b600073ffffffffffffffffffffffffffffffffffffffff82169050919050565b6000819050919050565b60006107b0826107b7565b9050919050565b60006107c28261077b565b9050919050565b60006107d48261079b565b91507fffffffffffffffffffffffffffffffffffffffffffffffffffffffffffffffff82141561080757610806610812565b5b600182019050919050565b7f4e487b7100000000000000000000000000000000000000000000000000000000600052601160045260246000fd5b7f5265656e7472616e637947756172643a207265656e7472616e742063616c6c00600082015250565b7f7072696365206d7573742062652067726561746572207468616e207a65726f00600082015250565b61089c81610769565b81146108a757600080fd5b50565b6108b38161079b565b81146108be57600080fd5b5056fea2646970667358221220521f964c3497852627a1f3977a6d53d0aea450e22914ac2207aab1580ec7ab8664736f6c63430008040033",
  "linkReferences": {},
  "deployedLinkReferences": {}
}